:020000040800F2
:10000000100400209D0F00088D0D00088F0D0008C2
:10001000910D0008930D0008950D000800000000E8
:10002000000000000000000000000000970D000824
:10003000990D0008000000009B0D00089D0D0008B0
:10004000C50F0008C90F0008CD0F0008D10F000828
:10005000D50F0008D90F0008DD0F0008E10F0008D8
:10006000E50F0008E90F0008ED0F00089F0D0008DC
:10007000F10F0008F50F0008F90F0008FD0F000848
:100080000110000805100008091000080D100008F4
:100090001110000815100008191000081D100008A4
:1000A0002110000825100008291000082D10000854
:1000B0003110000835100008391000083D10000804
:1000C0004110000845100008491000084D100008B4
:1000D00051100008AD0D0008551000085910000817
:1000E0005D10000861100008651000086910000824
:1000F0006D100008711000087510000879100008D4
:100100000000000000000000000000007D1000085A
:100110008110000885100008290E0008470E00080D
:10012000891000088D100008911000089510000833
:10013000991000089D100008000000000000000059
:10014000A1100008A5100008A91000080000000078
:10015000000000000000000000000000000000009F
:100160000000000000000000AD100008B110000801
:10017000B5100008000000000000000000000000B2
:1001800000000000B9100008010008D4012200F0AE
:100190001F01DFF874358A40400943F8202070477A
:1001A0000901020003D4DFF8640581547047DFF8C9
:1001B000603502F00F021A4402F8041C704730B593
:1001C00000F007000123C0F10704052C2EBF0F2407
:1001D00003FA04F4641E051D072D34BF0020C01E61
:1001E0002140814003FA00F0401E1040084330BD1A
:1001F0008B0910B5303003F00C03181801F01F0103
:1002000004681F238B40C2F384629C4302FA01F10D
:100210002143016010BDCB0D10B5143003F0040371
:100220001818090D01F01F01036807248C40A3432F
:1002300002FA01F11943016010BD70B502F0180215
:10024000DFF8D054D0F8B06025FA02F305EA0104D3
:100250001940A64329403143C0F8B01070BDDFF803
:10026000B81401E0DFF8B41481B00A6802430A60F0
:10027000096808400090009801B07047DFF8A014AA
:10028000F2E7002101704170704730B50022DFF8BD
:10029000943406E01C682406FCD5D4B2521C055DDB
:1002A0009D81D4B28C42F5D330BD2DE9F04F93B08F
:1002B0000120FFF7E3FF4FF08050FFF7D3FFDFF897
:1002C0006844DFF868042268DFF86464DFF8648457
:1002D000DFF864944FF6FF010A400243226000F009
:1002E000C2F94FF48000FFF7BAFF00F0B3F94FF402
:1002F0000030FFF7B4FF0120FFF7B1FF00F0ADF9C8
:1003000001460B20FFF74CFF0B20FFF73DFF1C229F
:10031000002106A800F034FA182200F090F94FF4FA
:100320008040FFF7ABFF00F095F9022201923021E7
:100330000091002203920492032102910722059268
:100340006946304600F026FA00F087F9014625207C
:10035000FFF726FF2520FFF717FF4FF4E1300021BC
:1003600006900791089109910C220B910C910A9229
:1003700006A9404600F09EFA59E8001F21F480616A
:1003800049E800100028F7D1D8F8040020F4904084
:10039000C8F804000C22D9F8001021F02A01C9F88D
:1003A00000100021D8F8000040F00100C8F800005B
:1003B000012700F045F91822002109A800F0E0F912
:1003C000102200210FA800F0DBF91822002103A859
:1003D00000F0D6F94FF08050FFF741FF00F03AF9F6
:1003E0004FF40030FFF73BFF082000F02CF93046B7
:1003F00000F0D0F9022000F026F94FF0904000F014
:10040000C9F9CE4ECE483168014031604FF0A04569
:10041000326822F440523260316841F0200131608C
:10042000306820F040003060316841F08001316078
:100430000021306867F309203060306867F38B2053
:1004400030600091019102914FF0A040694600F0A8
:10045000C5FA4FF4E86109914FF4005200210B9165
:100460000C9203210D914FF480520E920A9709A924
:100470004FF0A04000F0C5FA686820F00400686002
:100480000021686820F0080068600F9110910FA9A2
:10049000AC4800F079FAE86867F38B20E860062141
:1004A000A94F3A462846FFF7A3FE00F0C4F800F033
:1004B000BEF8A64F3A460C212846FFF799FE00F0F9
:1004C000BAF800F0B4F8142200F0B9F81020FFF7E1
:1004D000C9FE206801220021C0F30220FFF76FFE51
:1004E00001463620FFF75CFEDFF864B2994F4FF407
:1004F0008000CBF800000021ADF8001001913846D3
:100500004FF47A4102914FF0020A694600F0B0FAC6
:10051000386820F080003860142278686AF306108A
:1005200078600021B86820F08000B86000F088F89A
:100530002020FFF797FE00F090F801463720FFF7E4
:100540002FFE4FF40000CBF8000040F67F41ADF8DD
:100550000010002242F210710291019269467E4C15
:10056000204600F085FA206820F080002060616855
:1005700021F070016160A068784920F08000A060DF
:10058000A86820F04050A860A868084040F080505B
:10059000A860AA687248024042F00042AA60A868B7
:1005A000C00FFCD16F480268AB680B4043F00103F9
:1005B000AB60A868014041F00401A96072686A4814
:1005C0006AF30F027260F060684AB260306840F00F
:1005D00002003060316841F001013160F86840F09C
:1005E0000100F860396841F00101396058E8001FE6
:1005F00041F0200148E800100028F7D159E8001F19
:1006000041F0010149E800100028F7D158E8001F27
:1006100041F0040148E800100028F7D158E8001F15
:1006200041F0080148E800100028F7D1FEE77F22DA
:100630003946284601E6042239462846EBE50021E2
:10064000684600F09DB803210390049100220792B0
:1006500003A970474FF4002001E620680022002122
:10066000C0F30220ABE538B54149424C0A6802208C
:1006700060F302020A600968226842F48032226054
:1006800021688903FCD5226842F400222260616857
:1006900021F4741141F4E8116160E16A090909016A
:1006A000E162226842F08072226021688901FCD5F3
:1006B0000421626822F0F0026260626861F30A223B
:1006C0006260616821F460516160616860F30101FA
:1006D0006160606800F00C000828FAD1264D2846B9
:1006E00000F020FA2548016841F004010160284625
:1006F00000F024FA206B8008800020631020E16A5B
:1007000060F30811E16231BD00E100E000E400E0C7
:1007100018ED00E0FEFF0700141002401C1002401C
:10072000181002401C3801400CED00E00005FA05ED
:100730000008004800380140083801400800024025
:10074000EFBFFFFF00030050040060080002B02567
:1007500004E100E00010004000140040C0FFFF7FF3
:10076000C0FFFF3FB40000500400002040000050D4
:10077000002002400010024000A24A0410E000E005
:1007800010B5044610460A460146204600F0DEF940
:10079000204610BD2DE9F0410B460246186890FA3C
:1007A000A0F0B0FA80F50F2468E0000A90FAA0F0FB
:1007B000B0FA80F0576A800004FA00FE27EA0E07BC
:1007C0000CFA00F040EA070CC2F824C04EE0012108
:1007D000A940084051D090FAA0F1B1FA81F7790010
:1007E00003268E40D3F804C0F643BCF1010F18BFB6
:1007F000BCF1020F19D1D3F808C0D2F808E006EA1C
:100800000E0E0CFA01FC4CEA0E0CC2F808C0D3F82C
:1008100000C0D2F804E0D3F80C802EEA0C0E08FBDE
:100820000CFC4CEA0E0CC2F804C0D3F810C0D2F88D
:100830000CE006EA0E0E0CFA01FC4CEA0E0CC2F8B3
:100840000CC0D3F804C0BCF1020F0FD1D3F814C010
:10085000082FAAD2106ABF0004FA07FE20EA0E0091
:100860000CFA07F747EA000CC2F820C0586817686E
:100870003E4000FA01F1314311606D1C186830FAF6
:1008800005F1A4D10020BDE8F0810EE002684368C4
:10089000024408305FEAC37C44BF4B445B1E52F8FD
:1008A00004CB43F804CB091FF9D150F8041B0029ED
:1008B000ECD1704770B504460E4620680125C1078B
:1008C00052D422682F4871680240F0680A433169A7
:1008D0000243B0690A43024322606168B06821F4B0
:1008E000405101436160A168706921F44071014386
:1008F000A1601F498C4208BF002008D01D498C42CE
:1009000008BF102003D01C48844203D1122000F0FD
:100910005BF90CE01948844208BF4FF4401004D042
:100920001748844220D14FF4400000F095F9002888
:100930001CBF3168002917D0B36900254A08B3F5F8
:10094000004F0CD102EB4002B2FBF1F080B24FF647
:10095000F0710140C0F342000143E16004E010186F
:10096000B0FBF1F080B2E060284670BD00000000EE
:10097000003801400044004000480040004C004066
:1009800000500040F369FFFF70B50022304B9842E1
:1009900004D1304C304D23682C6803E02F4B304C91
:1009A0001B68246803F0010304F00104234312D1FF
:1009B0004B680C682B4D4BB1866835402C43234364
:1009C0008C68C96823430B43836005E081680D4050
:1009D0002C43846000E00122104670BD70B50246D1
:1009E00000209368DB070AD4D6681F4D0C684B685B
:1009F00089682E4026431E430E43D66070BD0120F9
:100A000070BDF0B583680022DC071ED44C690D6907
:100A1000CE680F684B68DFF854C03BB1D0F80CE0EB
:100A20000CEA0E031F438B681F4303E0C3680CEA04
:100A300003031F433E4335432C43C460036B4968A3
:100A40001B0941EA0313036300E001221046F0BDD5
:100A50000003005008000050080100500804005036
:100A600008050050E030FCFFC7BFFFFF3CC0F0FFAF
:100A70002DE9F0410368DFF89080DFF8A440DFF84B
:100A80009C50DFF89460DFF88C70DFF884C0DFF8EA
:100A90007CE0404518BFB0F1804F04D070451CBFCA
:100AA0006045B8420CD14A6823F0700313434045B7
:100AB00018BFB0F1804F0BD0704518BF604507D00C
:100AC000B84218BFB04203D0A84218BFA04203D119
:100AD000CA6823F440731343036040458A68C262C6
:100AE0000A88826218BFB84204D0B0421CBFA84234
:100AF000A04201D109690163416941F001014161ED
:100B00000020BDE8F0810000002C014000040040FE
:100B10000008004000340140004001400044014012
:100B2000004801404FF47A720649B0FBF2F0401ED3
:100B3000486000238B600520086070470249086008
:100B40007047000010E000E00000002062F30F2278
:100B500062F31F42401810F0030308D0C91A1FD3D4
:100B6000DB0748BF00F8012D28BF20F8022D130035
:100B700030B414461546103928BF20E93C00FAD895
:100B8000490728BF20E90C0048BF40F8042D890020
:100B900028BF20F8022D48BF00F8012D30BC704757
:100BA000C91818BF00F8012DCB0728BF00F8012D88
:100BB000704700000146DFF88801006803228A4080
:100BC000104040EA01607047F8B500245E4D5D4F6B
:100BD0004FF4004670B9FFF7EDFF012826D002D38D
:100BE000032826D02AD300F077F800F07FF800F031
:100BF0008BF82EE010280BD1FFF7DCFF5349884219
:100C000014D05349884219D0524988421BD110E070
:100C100012281FD1FFF7CEFF4F49884206D04F4917
:100C200088420BD04E49884203D00CE000F054F8C3
:100C30000FE0386880070DD52C460BE0386A800736
:100C400008D5344606E000F047F800F04FF800F011
:100C500053F804462046F2BD38B501460020B1F5F0
:100C6000401F394A374B4FF400440ED1196B3D4DAC
:100C700001F4401141F44051A94218D03A4DA94223
:100C80001DD03A4DA9421FD114E0B1F5400F22D139
:100C9000196B374D01F4400141F44041A94206D09F
:100CA000344DA9420BD0344DA94203D00CE0BDE82D
:100CB000314011E0196889070DD5104632BD196A17
:100CC000890708D5204632BD00F006F800F00EF87E
:100CD000BDE8324010E032BD2848006800F00C004A
:100CE000082808BF00F016B8174870472349244A5F
:100CF0000968C1F3031104E02049224A0968C1F3DD
:100D00000221515CC84070471C491E4A0968C1F362
:100D1000C221F6E71948016801F48031B1F5803F3E
:100D20000CBF09491849826A036802F00F02521C7D
:100D3000B1FBF2F0C3F38341891C484370470000C4
:100D4000301002400010024000127A000000011032
:100D5000000002100000031000000412000008123E
:100D600000000C1200301000003020000030300075
:100D700000C0400000C0800000C0C000041002405D
:100D8000280F0008BC0F000800093D007047FEE76F
:100D9000FEE7FEE7FEE770477047704770473A4846
:100DA0000168890744BF02224260704738B537485E
:100DB000016889062DD50289354C36482178364B95
:100DC00042540278552A0BD14278962A17D1DA6814
:100DD00042F00102DA601D6845F001051D600EE079
:100DE000AA2A04BF4278962A09D1DA68520852002A
:100DF000DA6000221D686D086D001D605A620129CD
:100E000008BFFFF73EFA2078401E8041C00F2070D7
:100E100031BD0168090705D40168890702D401685A
:100E2000490700D5008931BD1C480168C90709D5AB
:100E30006FF001021A4902600B681A48034043F040
:100E400004030B60704718480168C90700D4704755
:100E500010B56FF00102154C0260217814480B4662
:100E600030F813201348491C41F09001130A817097
:100E7000037042700321FFF708FA2278501E804168
:100E8000C00F207010BD0000000002401C3801405F
:100E90000F0000200C000020001400401010004043
:100EA00008000050C0FFFF7F101400400E0000201B
:100EB000040000200800002010B5074979441831CB
:100EC000064C7C44163404E00A68081D1144884727
:100ED0000146A142F8D110BD2C0000003C000000EA
:100EE0004EF68851CEF20001086840F470000860A8
:100EF000BFF34F8FBFF36F8F4FF00170E1EE100A19
:100F00007047000087F9FFFF10000000A0000000FC
:100F100000000020000000000248016841F4700158
:100F20000160704788ED00E0000000000000000054
:100F3000010203040607080900F00DF8002801D09B
:100F4000FFF7BAFFAFF300800020AFF30080FFF798
:100F5000ACF900F002F80120704700F001B8000081
:100F60000746384600F002F8FBE7000080B5AFF313
:100F70000080024A11001820ABBEFBE726000200E9
:100F80000548014603B4684680F30988AFF3008042
:100F9000FFF7A6FFFFF7D0FFA5EDF5FE014880475C
:100FA00001480047190F0008810F000800127A005D
:100FB0000000000000000000000000000000000031
:100FC00001020304FFF7FEBFFFF7FEBFFFF7FEBFFE
:100FD000FFF7FEBFFFF7FEBFFFF7FEBFFFF7FEBF45
:100FE000FFF7FEBFFFF7FEBFFFF7FEBFFFF7FEBF35
:100FF000FFF7FEBFFFF7FEBFFFF7FEBFFFF7FEBF25
:10100000FFF7FEBFFFF7FEBFFFF7FEBFFFF7FEBF14
:10101000FFF7FEBFFFF7FEBFFFF7FEBFFFF7FEBF04
:10102000FFF7FEBFFFF7FEBFFFF7FEBFFFF7FEBFF4
:10103000FFF7FEBFFFF7FEBFFFF7FEBFFFF7FEBFE4
:10104000FFF7FEBFFFF7FEBFFFF7FEBFFFF7FEBFD4
:10105000FFF7FEBFFFF7FEBFFFF7FEBFFFF7FEBFC4
:10106000FFF7FEBFFFF7FEBFFFF7FEBFFFF7FEBFB4
:10107000FFF7FEBFFFF7FEBFFFF7FEBFFFF7FEBFA4
:10108000FFF7FEBFFFF7FEBFFFF7FEBFFFF7FEBF94
:10109000FFF7FEBFFFF7FEBFFFF7FEBFFFF7FEBF84
:1010A000FFF7FEBFFFF7FEBFFFF7FEBFFFF7FEBF74
:0C10B000FFF7FEBFFFF7FEBFFFF7FEBF1B
:0400000508000F815F
:00000001FF
